{"abi":[{"type":"constructor","inputs":[{"name":"_liquidityPool","type":"address","internalType":"address"}],"stateMutability":"nonpayable"},{"type":"receive","stateMutability":"payable"},{"type":"function","name":"basePremiumRate","inputs":[],"outputs":[{"name":"","type":"uint256","internalType":"uint256"}],"stateMutability":"view"},{"type":"function","name":"calculatePremium","inputs":[{"name":"payoutAmount","type":"uint256","internalType":"uint256"},{"name":"coverageDuration","type":"uint256","internalType":"uint256"},{"name":"parameterType","type":"uint8","internalType":"enum PolicyManager.WeatherParameter"},{"name":"operator","type":"uint8","internalType":"enum PolicyManager.ComparisonOperator"}],"outputs":[{"name":"premium","type":"uint256","internalType":"uint256"}],"stateMutability":"view"},{"type":"function","name":"claimedPolicies","inputs":[{"name":"","type":"uint256","internalType":"uint256"}],"outputs":[{"name":"","type":"bool","internalType":"bool"}],"stateMutability":"view"},{"type":"function","name":"createPolicy","inputs":[{"name":"coveragePeriodStart","type":"uint256","internalType":"uint256"},{"name":"coveragePeriodEnd","type":"uint256","internalType":"uint256"},{"name":"location","type":"string","internalType":"string"},{"name":"parameterType","type":"uint8","internalType":"enum PolicyManager.WeatherParameter"},{"name":"triggerValue","type":"int256","internalType":"int256"},{"name":"operator","type":"uint8","internalType":"enum PolicyManager.ComparisonOperator"},{"name":"payoutAmount","type":"uint256","internalType":"uint256"}],"outputs":[{"name":"policyId","type":"uint256","internalType":"uint256"}],"stateMutability":"payable"},{"type":"function","name":"createPolicyFromTemplate","inputs":[{"name":"template","type":"uint8","internalType":"enum PolicyManager.PolicyTemplate"},{"name":"location","type":"string","internalType":"string"},{"name":"coveragePeriodStart","type":"uint256","internalType":"uint256"}],"outputs":[{"name":"policyId","type":"uint256","internalType":"uint256"}],"stateMutability":"payable"},{"type":"function","name":"evaluatePolicies","inputs":[{"name":"location","type":"string","internalType":"string"},{"name":"parameterType","type":"uint8","internalType":"uint8"},{"name":"value","type":"int256","internalType":"int256"},{"name":"timestamp","type":"uint256","internalType":"uint256"}],"outputs":[],"stateMutability":"nonpayable"},{"type":"function","name":"evaluateTrigger","inputs":[{"name":"operator","type":"uint8","internalType":"enum PolicyManager.ComparisonOperator"},{"name":"actualValue","type":"int256","internalType":"int256"},{"name":"triggerValue","type":"int256","internalType":"int256"}],"outputs":[{"name":"","type":"bool","internalType":"bool"}],"stateMutability":"pure"},{"type":"function","name":"getAllTemplates","inputs":[],"outputs":[{"name":"cropConfig","type":"tuple","internalType":"struct PolicyManager.TemplateConfig","components":[{"name":"name","type":"string","internalType":"string"},{"name":"description","type":"string","internalType":"string"},{"name":"defaultParameterType","type":"uint8","internalType":"enum PolicyManager.WeatherParameter"},{"name":"defaultOperator","type":"uint8","internalType":"enum PolicyManager.ComparisonOperator"},{"name":"defaultTriggerValue","type":"int256","internalType":"int256"},{"name":"defaultCoverageDuration","type":"uint256","internalType":"uint256"},{"name":"defaultPayoutAmount","type":"uint256","internalType":"uint256"}]},{"name":"eventConfig","type":"tuple","internalType":"struct PolicyManager.TemplateConfig","components":[{"name":"name","type":"string","internalType":"string"},{"name":"description","type":"string","internalType":"string"},{"name":"defaultParameterType","type":"uint8","internalType":"enum PolicyManager.WeatherParameter"},{"name":"defaultOperator","type":"uint8","internalType":"enum PolicyManager.ComparisonOperator"},{"name":"defaultTriggerValue","type":"int256","internalType":"int256"},{"name":"defaultCoverageDuration","type":"uint256","internalType":"uint256"},{"name":"defaultPayoutAmount","type":"uint256","internalType":"uint256"}]},{"name":"travelConfig","type":"tuple","internalType":"struct PolicyManager.TemplateConfig","components":[{"name":"name","type":"string","internalType":"string"},{"name":"description","type":"string","internalType":"string"},{"name":"defaultParameterType","type":"uint8","internalType":"enum PolicyManager.WeatherParameter"},{"name":"defaultOperator","type":"uint8","internalType":"enum PolicyManager.ComparisonOperator"},{"name":"defaultTriggerValue","type":"int256","internalType":"int256"},{"name":"defaultCoverageDuration","type":"uint256","internalType":"uint256"},{"name":"defaultPayoutAmount","type":"uint256","internalType":"uint256"}]}],"stateMutability":"view"},{"type":"function","name":"getPolicy","inputs":[{"name":"policyId","type":"uint256","internalType":"uint256"}],"outputs":[{"name":"","type":"tuple","internalType":"struct PolicyManager.Policy","components":[{"name":"holder","type":"address","internalType":"address"},{"name":"coveragePeriodStart","type":"uint256","internalType":"uint256"},{"name":"coveragePeriodEnd","type":"uint256","internalType":"uint256"},{"name":"location","type":"string","internalType":"string"},{"name":"parameterType","type":"uint8","internalType":"enum PolicyManager.WeatherParameter"},{"name":"triggerValue","type":"int256","internalType":"int256"},{"name":"operator","type":"uint8","internalType":"enum PolicyManager.ComparisonOperator"},{"name":"premium","type":"uint256","internalType":"uint256"},{"name":"payoutAmount","type":"uint256","internalType":"uint256"},{"name":"status","type":"uint8","internalType":"enum PolicyManager.PolicyStatus"},{"name":"createdAt","type":"uint256","internalType":"uint256"}]}],"stateMutability":"view"},{"type":"function","name":"getPolicyStatus","inputs":[{"name":"policyId","type":"uint256","internalType":"uint256"}],"outputs":[{"name":"","type":"uint8","internalType":"enum PolicyManager.PolicyStatus"}],"stateMutability":"view"},{"type":"function","name":"getTemplate","inputs":[{"name":"template","type":"uint8","internalType":"enum PolicyManager.PolicyTemplate"}],"outputs":[{"name":"","type":"tuple","internalType":"struct PolicyManager.TemplateConfig","components":[{"name":"name","type":"string","internalType":"string"},{"name":"description","type":"string","internalType":"string"},{"name":"defaultParameterType","type":"uint8","internalType":"enum PolicyManager.WeatherParameter"},{"name":"defaultOperator","type":"uint8","internalType":"enum PolicyManager.ComparisonOperator"},{"name":"defaultTriggerValue","type":"int256","internalType":"int256"},{"name":"defaultCoverageDuration","type":"uint256","internalType":"uint256"},{"name":"defaultPayoutAmount","type":"uint256","internalType":"uint256"}]}],"stateMutability":"view"},{"type":"function","name":"getUserActivePolicies","inputs":[{"name":"user","type":"address","internalType":"address"}],"outputs":[{"name":"","type":"uint256[]","internalType":"uint256[]"}],"stateMutability":"view"},{"type":"function","name":"getUserClaims","inputs":[{"name":"user","type":"address","internalType":"address"}],"outputs":[{"name":"","type":"tuple[]","internalType":"struct PolicyManager.Claim[]","components":[{"name":"policyId","type":"uint256","internalType":"uint256"},{"name":"timestamp","type":"uint256","internalType":"uint256"},{"name":"payoutAmount","type":"uint256","internalType":"uint256"},{"name":"weatherValue","type":"int256","internalType":"int256"}]}],"stateMutability":"view"},{"type":"function","name":"getUserPolicies","inputs":[{"name":"user","type":"address","internalType":"address"}],"outputs":[{"name":"","type":"uint256[]","internalType":"uint256[]"}],"stateMutability":"view"},{"type":"function","name":"liquidityPool","inputs":[],"outputs":[{"name":"","type":"address","internalType":"contract LiquidityPool"}],"stateMutability":"view"},{"type":"function","name":"maxCoveragePeriod","inputs":[],"outputs":[{"name":"","type":"uint256","internalType":"uint256"}],"stateMutability":"view"},{"type":"function","name":"maxPayoutAmount","inputs":[],"outputs":[{"name":"","type":"uint256","internalType":"uint256"}],"stateMutability":"view"},{"type":"function","name":"minCoveragePeriod","inputs":[],"outputs":[{"name":"","type":"uint256","internalType":"uint256"}],"stateMutability":"view"},{"type":"function","name":"minPayoutAmount","inputs":[],"outputs":[{"name":"","type":"uint256","internalType":"uint256"}],"stateMutability":"view"},{"type":"function","name":"oracleConsumer","inputs":[],"outputs":[{"name":"","type":"address","internalType":"address"}],"stateMutability":"view"},{"type":"function","name":"owner","inputs":[],"outputs":[{"name":"","type":"address","internalType":"address"}],"stateMutability":"view"},{"type":"function","name":"pause","inputs":[],"outputs":[],"stateMutability":"nonpayable"},{"type":"function","name":"paused","inputs":[],"outputs":[{"name":"","type":"bool","internalType":"bool"}],"stateMutability":"view"},{"type":"function","name":"policies","inputs":[{"name":"","type":"uint256","internalType":"uint256"}],"outputs":[{"name":"holder","type":"address","internalType":"address"},{"name":"coveragePeriodStart","type":"uint256","internalType":"uint256"},{"name":"coveragePeriodEnd","type":"uint256","internalType":"uint256"},{"name":"location","type":"string","internalType":"string"},{"name":"parameterType","type":"uint8","internalType":"enum PolicyManager.WeatherParameter"},{"name":"triggerValue","type":"int256","internalType":"int256"},{"name":"operator","type":"uint8","internalType":"enum PolicyManager.ComparisonOperator"},{"name":"premium","type":"uint256","internalType":"uint256"},{"name":"payoutAmount","type":"uint256","internalType":"uint256"},{"name":"status","type":"uint8","internalType":"enum PolicyManager.PolicyStatus"},{"name":"createdAt","type":"uint256","internalType":"uint256"}],"stateMutability":"view"},{"type":"function","name":"policyCounter","inputs":[],"outputs":[{"name":"","type":"uint256","internalType":"uint256"}],"stateMutability":"view"},{"type":"function","name":"renounceOwnership","inputs":[],"outputs":[],"stateMutability":"nonpayable"},{"type":"function","name":"setBasePremiumRate","inputs":[{"name":"_basePremiumRate","type":"uint256","internalType":"uint256"}],"outputs":[],"stateMutability":"nonpayable"},{"type":"function","name":"setOracleConsumer","inputs":[{"name":"_oracleConsumer","type":"address","internalType":"address"}],"outputs":[],"stateMutability":"nonpayable"},{"type":"function","name":"setParameterLimits","inputs":[{"name":"_minCoveragePeriod","type":"uint256","internalType":"uint256"},{"name":"_maxCoveragePeriod","type":"uint256","internalType":"uint256"},{"name":"_minPayoutAmount","type":"uint256","internalType":"uint256"},{"name":"_maxPayoutAmount","type":"uint256","internalType":"uint256"}],"outputs":[],"stateMutability":"nonpayable"},{"type":"function","name":"templates","inputs":[{"name":"","type":"uint8","internalType":"enum PolicyManager.PolicyTemplate"}],"outputs":[{"name":"name","type":"string","internalType":"string"},{"name":"description","type":"string","internalType":"string"},{"name":"defaultParameterType","type":"uint8","internalType":"enum PolicyManager.WeatherParameter"},{"name":"defaultOperator","type":"uint8","internalType":"enum PolicyManager.ComparisonOperator"},{"name":"defaultTriggerValue","type":"int256","internalType":"int256"},{"name":"defaultCoverageDuration","type":"uint256","internalType":"uint256"},{"name":"defaultPayoutAmount","type":"uint256","internalType":"uint256"}],"stateMutability":"view"},{"type":"function","name":"transferOwnership","inputs":[{"name":"newOwner","type":"address","internalType":"address"}],"outputs":[],"stateMutability":"nonpayable"},{"type":"function","name":"unpause","inputs":[],"outputs":[],"stateMutability":"nonpayable"},{"type":"function","name":"updateExpiredPolicies","inputs":[{"name":"policyIds","type":"uint256[]","internalType":"uint256[]"}],"outputs":[],"stateMutability":"nonpayable"},{"type":"function","name":"userClaims","inputs":[{"name":"","type":"address","internalType":"address"},{"name":"","type":"uint256","internalType":"uint256"}],"outputs":[{"name":"policyId","type":"uint256","internalType":"uint256"},{"name":"timestamp","type":"uint256","internalType":"uint256"},{"name":"payoutAmount","type":"uint256","internalType":"uint256"},{"name":"weatherValue","type":"int256","internalType":"int256"}],"stateMutability":"view"},{"type":"function","name":"userPolicies","inputs":[{"name":"","type":"address","internalType":"address"},{"name":"","type":"uint256","internalType":"uint256"}],"outputs":[{"name":"","type":"uint256","internalType":"uint256"}],"stateMutability":"view"},{"type":"event","name":"ClaimProcessed","inputs":[{"name":"policyId","type":"uint256","indexed":true,"internalType":"uint256"},{"name":"holder","type":"address","indexed":true,"internalType":"address"},{"name":"payoutAmount","type":"uint256","indexed":false,"internalType":"uint256"},{"name":"timestamp","type":"uint256","indexed":false,"internalType":"uint256"}],"anonymous":false},{"type":"event","name":"OwnershipTransferred","inputs":[{"name":"previousOwner","type":"address","indexed":true,"internalType":"address"},{"name":"newOwner","type":"address","indexed":true,"internalType":"address"}],"anonymous":false},{"type":"event","name":"ParameterLimitsUpdated","inputs":[{"name":"minCoveragePeriod","type":"uint256","indexed":false,"internalType":"uint256"},{"name":"maxCoveragePeriod","type":"uint256","indexed":false,"internalType":"uint256"},{"name":"minPayoutAmount","type":"uint256","indexed":false,"internalType":"uint256"},{"name":"maxPayoutAmount","type":"uint256","indexed":false,"internalType":"uint256"}],"anonymous":false},{"type":"event","name":"Paused","inputs":[{"name":"account","type":"address","indexed":false,"internalType":"address"}],"anonymous":false},{"type":"event","name":"PolicyCreated","inputs":[{"name":"policyId","type":"uint256","indexed":true,"internalType":"uint256"},{"name":"holder","type":"address","indexed":true,"internalType":"address"},{"name":"premium","type":"uint256","indexed":false,"internalType":"uint256"},{"name":"payoutAmount","type":"uint256","indexed":false,"internalType":"uint256"},{"name":"coveragePeriodStart","type":"uint256","indexed":false,"internalType":"uint256"},{"name":"coveragePeriodEnd","type":"uint256","indexed":false,"internalType":"uint256"}],"anonymous":false},{"type":"event","name":"PolicyStatusUpdated","inputs":[{"name":"policyId","type":"uint256","indexed":true,"internalType":"uint256"},{"name":"oldStatus","type":"uint8","indexed":false,"internalType":"enum PolicyManager.PolicyStatus"},{"name":"newStatus","type":"uint8","indexed":false,"internalType":"enum PolicyManager.PolicyStatus"}],"anonymous":false},{"type":"event","name":"PremiumRateUpdated","inputs":[{"name":"oldRate","type":"uint256","indexed":false,"internalType":"uint256"},{"name":"newRate","type":"uint256","indexed":false,"internalType":"uint256"}],"anonymous":false},{"type":"event","name":"Unpaused","inputs":[{"name":"account","type":"address","indexed":false,"internalType":"address"}],"anonymous":false},{"type":"error","name":"EnforcedPause","inputs":[]},{"type":"error","name":"ExpectedPause","inputs":[]},{"type":"error","name":"InsufficientPremium","inputs":[]},{"type":"error","name":"InvalidCoveragePeriod","inputs":[]},{"type":"error","name":"InvalidLiquidityPool","inputs":[]},{"type":"error","name":"InvalidOracleConsumer","inputs":[]},{"type":"error","name":"InvalidPayoutAmount","inputs":[]},{"type":"error","name":"InvalidPremiumRate","inputs":[]},{"type":"error","name":"InvalidTriggerValue","inputs":[]},{"type":"error","name":"OnlyOracleConsumer","inputs":[]},{"type":"error","name":"OwnableInvalidOwner","inputs":[{"name":"owner","type":"address","internalType":"address"}]},{"type":"error","name":"OwnableUnauthorizedAccount","inputs":[{"name":"account","type":"address","internalType":"address"}]},{"type":"error","name":"PolicyAlreadyClaimed","inputs":[]},{"type":"error","name":"PolicyNotActive","inputs":[]},{"type":"error","name":"ReentrancyGuardReentrantCall","inputs":[]}],"bytecode":{"object":"0x6080604052620151806008556301e13380600955662386f26fc10000600a5568056bc75e2d63100000600b556101f4600c5534801561003c575f5ffd5b50604051615694380380615694833981810160405281019061005e91906107c0565b335f73ffffffffffffffffffffffffffffffffffffffff168173ffffffffffffffffffffffffffffffffffffffff16036100cf575f6040517f1e4fbdf70000000000000000000000000000000000000000000000000000000081526004016100c691906107fa565b60405180910390fd5b6100de816101bc60201b60201c565b5060016100fd6100f261027d60201b60201c565b6102a660201b60201c565b5f01819055505f73ffffffffffffffffffffffffffffffffffffffff168173ffffffffffffffffffffffffffffffffffffffff1603610168576040517f398a379800000000000000000000000000000000000000000000000000000000815260040160405180910390fd5b8060015f6101000a81548173ffffffffffffffffffffffffffffffffffffffff021916908373ffffffffffffffffffffffffffffffffffffffff1602179055506101b66102af60201b60201c565b50610b4c565b5f5f5f9054906101000a900473ffffffffffffffffffffffffffffffffffffffff169050815f5f6101000a81548173ffffffffffffffffffffffffffffffffffffffff021916908373ffffffffffffffffffffffffffffffffffffffff1602179055508173ffffffffffffffffffffffffffffffffffffffff168173ffffffffffffffffffffffffffffffffffffffff167f8be0079c531659141344cd1fd0a4f28419497f9722a3daafe3b4186f6b6457e060405160405180910390a35050565b5f7f9b779b17422d0df92223018b32b4d1fa46e071723d6817e2486d003becc55f005f1b905090565b5f819050919050565b6040518060e001604052806040518060400160405280600e81526020017f43726f7020496e737572616e636500000000000000000000000000000000000081525081526020016040518060600160405280603d81526020016155de603d913981526020016001600381111561032757610326610813565b5b8152602001600160028111156103405761033f610813565b5b8152602001603281526020016276a7008152602001674563918244f40000815250600d5f5f600281111561037757610376610813565b5b600281111561038957610388610813565b5b81526020019081526020015f205f820151815f0190816103a99190610a7d565b5060208201518160010190816103bf9190610a7d565b506040820151816002015f6101000a81548160ff021916908360038111156103ea576103e9610813565b5b021790555060608201518160020160016101000a81548160ff0219169083600281111561041a57610419610813565b5b02179055506080820151816003015560a0820151816004015560c082015181600501559050506040518060e001604052806040518060400160405280600f81526020017f4576656e7420496e737572616e6365000000000000000000000000000000000081525081526020016040518060600160405280603b815260200161561b603b91398152602001600160038111156104b8576104b7610813565b5b81526020015f60028111156104d0576104cf610813565b5b8152602001600a815260200162093a808152602001671bc16d674ec80000815250600d5f6001600281111561050857610507610813565b5b600281111561051a57610519610813565b5b81526020019081526020015f205f820151815f01908161053a9190610a7d565b5060208201518160010190816105509190610a7d565b506040820151816002015f6101000a81548160ff0219169083600381111561057b5761057a610813565b5b021790555060608201518160020160016101000a81548160ff021916908360028111156105ab576105aa610813565b5b02179055506080820151816003015560a0820151816004015560c082015181600501559050506040518060e001604052806040518060400160405280601081526020017f54726176656c20496e737572616e63650000000000000000000000000000000081525081526020016040518060600160405280603e8152602001615656603e913981526020015f600381111561064857610647610813565b5b81526020016001600281111561066157610660610813565b5b81526020015f8152602001621275008152602001670de0b6b3a7640000815250600d5f60028081111561069757610696610813565b5b60028111156106a9576106a8610813565b5b81526020019081526020015f205f820151815f0190816106c99190610a7d565b5060208201518160010190816106df9190610a7d565b506040820151816002015f6101000a81548160ff0219169083600381111561070a57610709610813565b5b021790555060608201518160020160016101000a81548160ff0219169083600281111561073a57610739610813565b5b02179055506080820151816003015560a0820151816004015560c08201518160050155905050565b5f5ffd5b5f73ffffffffffffffffffffffffffffffffffffffff82169050919050565b5f61078f82610766565b9050919050565b61079f81610785565b81146107a9575f5ffd5b50565b5f815190506107ba81610796565b92915050565b5f602082840312156107d5576107d4610762565b5b5f6107e2848285016107ac565b91505092915050565b6107f481610785565b82525050565b5f60208201905061080d5f8301846107eb565b92915050565b7f4e487b71000000000000000000000000000000000000000000000000000000005f52602160045260245ffd5b5f81519050919050565b7f4e487b71000000000000000000000000000000000000000000000000000000005f52604160045260245ffd5b7f4e487b71000000000000000000000000000000000000000000000000000000005f52602260045260245ffd5b5f60028204905060018216806108bb57607f821691505b6020821081036108ce576108cd610877565b5b50919050565b5f819050815f5260205f209050919050565b5f6020601f8301049050919050565b5f82821b905092915050565b5f600883026109307fffffffffffffffffffffffffffffffffffffffffffffffffffffffffffffffff826108f5565b61093a86836108f5565b95508019841693508086168417925050509392505050565b5f819050919050565b5f819050919050565b5f61097e61097961097484610952565b61095b565b610952565b9050919050565b5f819050919050565b61099783610964565b6109ab6109a382610985565b848454610901565b825550505050565b5f5f905090565b6109c26109b3565b6109cd81848461098e565b505050565b5b818110156109f0576109e55f826109ba565b6001810190506109d3565b5050565b601f821115610a3557610a06816108d4565b610a0f846108e6565b81016020851015610a1e578190505b610a32610a2a856108e6565b8301826109d2565b50505b505050565b5f82821c905092915050565b5f610a555f1984600802610a3a565b1980831691505092915050565b5f610a6d8383610a46565b9150826002028217905092915050565b610a8682610840565b67ffffffffffffffff811115610a9f57610a9e61084a565b5b610aa982546108a4565b610ab48282856109f4565b5f60209050601f831160018114610ae5575f8415610ad3578287015190505b610add8582610a62565b865550610b44565b601f198416610af3866108d4565b5f5b82811015610b1a57848901518255600182019150602085019450602081019050610af5565b86831015610b375784890151610b33601f891682610a46565b8355505b6001600288020188555050505b505050505050565b614a8580610b595f395ff3fe608060405260043610610207575f3560e01c80637bcb4a6411610117578063c2fbaa611161009f578063eb02aefb1161006e578063eb02aefb146107b5578063ee545efb146107dd578063eea5e06b14610805578063f2fde38b14610841578063f8d96c98146108695761020e565b8063c2fbaa61146106ca578063ca9748ea14610706578063d3e8948314610745578063d52c1bea1461078b5761020e565b80638da5cb5b116100e65780638da5cb5b146105e05780638e46a3001461060a578063a4169fa914610636578063b4b7f20d14610660578063b7bf57dd146106a25761020e565b80637bcb4a641461052a578063816a30331461056657806381a8f0c31461058e5780638456cb59146105ca5761020e565b80633d36adc51161019a578063660e9efd11610169578063660e9efd1461046e578063665a11ca146104965780636c84dd81146104c0578063715018a6146104ea57806377c17b98146105005761020e565b80633d36adc5146103c85780633f4ba83a146104045780635c975abb1461041a5780635e9fdfd2146104445761020e565b80631f953a6c116101d65780631f953a6c146102f05780632b07fce31461032057806336eb6b581461035c5780633b03249c1461038c5761020e565b8063010a43131461021257806302de32cf1461023c57806312052b2b1461027857806319ac4614146102b45761020e565b3661020e57005b5f5ffd5b34801561021d575f5ffd5b50610226610893565b6040516102339190613437565b60405180910390f35b348015610247575f5ffd5b50610262600480360381019061025d919061348b565b610899565b60405161026f91906134d0565b60405180910390f35b348015610283575f5ffd5b5061029e60048036038101906102999190613543565b6108b6565b6040516102ab9190613625565b60405180910390f35b3480156102bf575f5ffd5b506102da60048036038101906102d59190613543565b610b6b565b6040516102e79190613625565b60405180910390f35b61030a600480360381019061030591906137fa565b610bfe565b6040516103179190613437565b60405180910390f35b34801561032b575f5ffd5b506103466004803603810190610341919061348b565b610c33565b6040516103539190613b1c565b60405180910390f35b61037660048036038101906103719190613b5f565b610e2d565b6040516103839190613437565b60405180910390f35b348015610397575f5ffd5b506103b260048036038101906103ad919061348b565b611090565b6040516103bf9190613bda565b60405180910390f35b3480156103d3575f5ffd5b506103ee60048036038101906103e99190613bf3565b6112d8565b6040516103fb9190613437565b60405180910390f35b34801561040f575f5ffd5b50610418611303565b005b348015610425575f5ffd5b5061042e611315565b60405161043b91906134d0565b60405180910390f35b34801561044f575f5ffd5b5061045861132a565b6040516104659190613437565b60405180910390f35b348015610479575f5ffd5b50610494600480360381019061048f9190613c67565b611330565b005b3480156104a1575f5ffd5b506104aa6114ee565b6040516104b79190613d42565b60405180910390f35b3480156104cb575f5ffd5b506104d4611513565b6040516104e19190613d6a565b60405180910390f35b3480156104f5575f5ffd5b506104fe611538565b005b34801561050b575f5ffd5b5061051461154b565b6040516105219190613437565b60405180910390f35b348015610535575f5ffd5b50610550600480360381019061054b9190613543565b611551565b60405161055d9190613e7e565b60405180910390f35b348015610571575f5ffd5b5061058c60048036038101906105879190613e9e565b611611565b005b348015610599575f5ffd5b506105b460048036038101906105af9190613f02565b611678565b6040516105c19190613fcd565b60405180910390f35b3480156105d5575f5ffd5b506105de611879565b005b3480156105eb575f5ffd5b506105f461188b565b6040516106019190613d6a565b60405180910390f35b348015610615575f5ffd5b5061061e6118b2565b60405161062d93929190613fed565b60405180910390f35b348015610641575f5ffd5b5061064a611eac565b6040516106579190613437565b60405180910390f35b34801561066b575f5ffd5b5061068660048036038101906106819190613f02565b611eb2565b60405161069997969594939291906140ac565b60405180910390f35b3480156106ad575f5ffd5b506106c860048036038101906106c3919061348b565b612015565b005b3480156106d5575f5ffd5b506106f060048036038101906106eb9190614127565b6120a3565b6040516106fd9190613437565b60405180910390f35b348015610711575f5ffd5b5061072c60048036038101906107279190613bf3565b61211e565b60405161073c949392919061418b565b60405180910390f35b348015610750575f5ffd5b5061076b6004803603810190610766919061348b565b612164565b6040516107829b9a999897969594939291906141ce565b60405180910390f35b348015610796575f5ffd5b5061079f612283565b6040516107ac9190613437565b60405180910390f35b3480156107c0575f5ffd5b506107db60048036038101906107d69190613543565b612289565b005b3480156107e8575f5ffd5b5061080360048036038101906107fe91906142db565b612339565b005b348015610810575f5ffd5b5061082b60048036038101906108269190614326565b61245e565b60405161083891906134d0565b60405180910390f35b34801561084c575f5ffd5b5061086760048036038101906108629190613543565b61250a565b005b348015610874575f5ffd5b5061087d61258e565b60405161088a9190613437565b60405180910390f35b60095481565b6006602052805f5260405f205f915054906101000a900460ff1681565b60605f60055f8473ffffffffffffffffffffffffffffffffffffffff1673ffffffffffffffffffffffffffffffffffffffff1681526020019081526020015f2080548060200260200160405190810160405280929190818152602001828054801561093e57602002820191905f5260205f20905b81548152602001906001019080831161092a575b505050505090505f5f90505f5f90505b8251811015610a0e575f600381111561096a57610969613922565b5b60045f8584815181106109805761097f614376565b5b602002602001015181526020019081526020015f206009015f9054906101000a900460ff1660038111156109b7576109b6613922565b5b03610a015760045f8483815181106109d2576109d1614376565b5b602002602001015181526020019081526020015f20600201544211610a005781806109fc906143d0565b9250505b5b808060010191505061094e565b505f8167ffffffffffffffff811115610a2a57610a2961365d565b5b604051908082528060200260200182016040528015610a585781602001602082028036833780820191505090505b5090505f5f90505f5f90505b8451811015610b5e575f6003811115610a8057610a7f613922565b5b60045f878481518110610a9657610a95614376565b5b602002602001015181526020019081526020015f206009015f9054906101000a900460ff166003811115610acd57610acc613922565b5b03610b515760045f868381518110610ae857610ae7614376565b5b602002602001015181526020019081526020015f20600201544211610b5057848181518110610b1a57610b19614376565b5b6020026020010151838381518110610b3557610b34614376565b5b6020026020010181815250508180610b4c906143d0565b9250505b5b8080600101915050610a64565b5081945050505050919050565b606060055f8373ffffffffffffffffffffffffffffffffffffffff1673ffffffffffffffffffffffffffffffffffffffff1681526020019081526020015f20805480602002602001604051908101604052809291908181526020018280548015610bf257602002820191905f5260205f20905b815481526020019060010190808311610bde575b50505050509050919050565b5f610c07612594565b610c0f6125d5565b610c1e888888888888886125f7565b9050610c28612c16565b979650505050505050565b610c3b613327565b60045f8381526020019081526020015f20604051806101600160405290815f82015f9054906101000a900473ffffffffffffffffffffffffffffffffffffffff1673ffffffffffffffffffffffffffffffffffffffff1673ffffffffffffffffffffffffffffffffffffffff1681526020016001820154815260200160028201548152602001600382018054610cd090614444565b80601f0160208091040260200160405190810160405280929190818152602001828054610cfc90614444565b8015610d475780601f10610d1e57610100808354040283529160200191610d47565b820191905f5260205f20905b815481529060010190602001808311610d2a57829003601f168201915b50505050508152602001600482015f9054906101000a900460ff166003811115610d7457610d73613922565b5b6003811115610d8657610d85613922565b5b815260200160058201548152602001600682015f9054906101000a900460ff166002811115610db857610db7613922565b5b6002811115610dca57610dc9613922565b5b81526020016007820154815260200160088201548152602001600982015f9054906101000a900460ff166003811115610e0657610e05613922565b5b6003811115610e1857610e17613922565b5b8152602001600a820154815250509050919050565b5f610e36612594565b610e3e6125d5565b5f600d5f866002811115610e5557610e54613922565b5b6002811115610e6757610e66613922565b5b81526020019081526020015f206040518060e00160405290815f82018054610e8e90614444565b80601f0160208091040260200160405190810160405280929190818152602001828054610eba90614444565b8015610f055780601f10610edc57610100808354040283529160200191610f05565b820191905f5260205f20905b815481529060010190602001808311610ee857829003601f168201915b50505050508152602001600182018054610f1e90614444565b80601f0160208091040260200160405190810160405280929190818152602001828054610f4a90614444565b8015610f955780601f10610f6c57610100808354040283529160200191610f95565b820191905f5260205f20905b815481529060010190602001808311610f7857829003601f168201915b50505050508152602001600282015f9054906101000a900460ff166003811115610fc257610fc1613922565b5b6003811115610fd457610fd3613922565b5b81526020016002820160019054906101000a900460ff166002811115610ffd57610ffc613922565b5b600281111561100f5761100e613922565b5b8152602001600382015481526020016004820154815260200160058201548152505090505f830361104b57610e10426110489190614474565b92505b5f8160a001518461105c9190614474565b905061107d8482878560400151866080015187606001518860c001516125f7565b92505050611089612c16565b9392505050565b5f5f60045f8481526020019081526020015f20604051806101600160405290815f82015f9054906101000a900473ffffffffffffffffffffffffffffffffffffffff1673ffffffffffffffffffffffffffffffffffffffff1673ffffffffffffffffffffffffffffffffffffffff168152602001600182015481526020016002820154815260200160038201805461112790614444565b80601f016020809104026020016040519081016040528092919081815260200182805461115390614444565b801561119e5780601f106111755761010080835404028352916020019161119e565b820191905f5260205f20905b81548152906001019060200180831161118157829003601f168201915b50505050508152602001600482015f9054906101000a900460ff1660038111156111cb576111ca613922565b5b60038111156111dd576111dc613922565b5b815260200160058201548152602001600682015f9054906101000a900460ff16600281111561120f5761120e613922565b5b600281111561122157611220613922565b5b81526020016007820154815260200160088201548152602001600982015f9054906101000a900460ff16600381111561125d5761125c613922565b5b600381111561126f5761126e613922565b5b8152602001600a8201548152505090505f600381111561129257611291613922565b5b81610120015160038111156112aa576112a9613922565b5b1480156112ba5750806040015142115b156112c95760029150506112d3565b8061012001519150505b919050565b6005602052815f5260405f2081815481106112f1575f80fd5b905f5260205f20015f91509150505481565b61130b612c30565b611313612cb7565b565b5f5f60149054906101000a900460ff16905090565b60085481565b60025f9054906101000a900473ffffffffffffffffffffffffffffffffffffffff1673ffffffffffffffffffffffffffffffffffffffff163373ffffffffffffffffffffffffffffffffffffffff16146113b6576040517fae9c665900000000000000000000000000000000000000000000000000000000815260040160405180910390fd5b5f5f90505b6003548110156114df575f60045f8381526020019081526020015f2090505f60038111156113ec576113eb613922565b5b816009015f9054906101000a900460ff16600381111561140f5761140e613922565b5b1461141a57506114d2565b8580519060200120816003016040516114339190614543565b604051809103902014158061147057508460ff16816004015f9054906101000a900460ff16600381111561146a57611469613922565b5b60ff1614155b1561147b57506114d2565b80600101548310806114905750806002015483115b1561149b57506114d2565b5f6114bb826006015f9054906101000a900460ff1686846005015461245e565b905080156114cf576114ce838686612d18565b5b50505b80806001019150506113bb565b506114e8612ff9565b50505050565b60015f9054906101000a900473ffffffffffffffffffffffffffffffffffffffff1681565b60025f9054906101000a900473ffffffffffffffffffffffffffffffffffffffff1681565b611540612c30565b6115495f61312e565b565b600c5481565b606060075f8373ffffffffffffffffffffffffffffffffffffffff1673ffffffffffffffffffffffffffffffffffffffff1681526020019081526020015f20805480602002602001604051908101604052809291908181526020015f905b82821015611606578382905f5260205f2090600402016040518060800160405290815f82015481526020016001820154815260200160028201548152602001600382015481525050815260200190600101906115af565b505050509050919050565b611619612c30565b836008819055508260098190555081600a8190555080600b819055507ffcd774b356af3a08981efbbcceee8fcb008176273280c0773d2e8aca13404a1a8484848460405161166a9493929190614559565b60405180910390a150505050565b6116806133c3565b600d5f83600281111561169657611695613922565b5b60028111156116a8576116a7613922565b5b81526020019081526020015f206040518060e00160405290815f820180546116cf90614444565b80601f01602080910402602001604051908101604052809291908181526020018280546116fb90614444565b80156117465780601f1061171d57610100808354040283529160200191611746565b820191905f5260205f20905b81548152906001019060200180831161172957829003601f168201915b5050505050815260200160018201805461175f90614444565b80601f016020809104026020016040519081016040528092919081815260200182805461178b90614444565b80156117d65780601f106117ad576101008083540402835291602001916117d6565b820191905f5260205f20905b8154815290600101906020018083116117b957829003601f168201915b50505050508152602001600282015f9054906101000a900460ff16600381111561180357611802613922565b5b600381111561181557611814613922565b5b81526020016002820160019054906101000a900460ff16600281111561183e5761183d613922565b5b60028111156118505761184f613922565b5b815260200160038201548152602001600482015481526020016005820154815250509050919050565b611881612c30565b6118896131ef565b565b5f5f5f9054906101000a900473ffffffffffffffffffffffffffffffffffffffff16905090565b6118ba6133c3565b6118c26133c3565b6118ca6133c3565b600d5f5f60028111156118e0576118df613922565b5b60028111156118f2576118f1613922565b5b81526020019081526020015f206040518060e00160405290815f8201805461191990614444565b80601f016020809104026020016040519081016040528092919081815260200182805461194590614444565b80156119905780601f1061196757610100808354040283529160200191611990565b820191905f5260205f20905b81548152906001019060200180831161197357829003601f168201915b505050505081526020016001820180546119a990614444565b80601f01602080910402602001604051908101604052809291908181526020018280546119d590614444565b8015611a205780601f106119f757610100808354040283529160200191611a20565b820191905f5260205f20905b815481529060010190602001808311611a0357829003601f168201915b50505050508152602001600282015f9054906101000a900460ff166003811115611a4d57611a4c613922565b5b6003811115611a5f57611a5e613922565b5b81526020016002820160019054906101000a900460ff166002811115611a8857611a87613922565b5b6002811115611a9a57611a99613922565b5b815260200160038201548152602001600482015481526020016005820154815250509250600d5f60016002811115611ad557611ad4613922565b5b6002811115611ae757611ae6613922565b5b81526020019081526020015f206040518060e00160405290815f82018054611b0e90614444565b80601f0160208091040260200160405190810160405280929190818152602001828054611b3a90614444565b8015611b855780601f10611b5c57610100808354040283529160200191611b85565b820191905f5260205f20905b815481529060010190602001808311611b6857829003601f168201915b50505050508152602001600182018054611b9e90614444565b80601f0160208091040260200160405190810160405280929190818152602001828054611bca90614444565b8015611c155780601f10611bec57610100808354040283529160200191611c15565b820191905f5260205f20905b815481529060010190602001808311611bf857829003601f168201915b50505050508152602001600282015f9054906101000a900460ff166003811115611c4257611c41613922565b5b6003811115611c5457611c53613922565b5b81526020016002820160019054906101000a900460ff166002811115611c7d57611c7c613922565b5b6002811115611c8f57611c8e613922565b5b815260200160038201548152602001600482015481526020016005820154815250509150600d5f600280811115611cc957611cc8613922565b5b6002811115611cdb57611cda613922565b5b81526020019081526020015f206040518060e00160405290815f82018054611d0290614444565b80601f0160208091040260200160405190810160405280929190818152602001828054611d2e90614444565b8015611d795780601f10611d5057610100808354040283529160200191611d79565b820191905f5260205f20905b815481529060010190602001808311611d5c57829003601f168201915b50505050508152602001600182018054611d9290614444565b80601f0160208091040260200160405190810160405280929190818152602001828054611dbe90614444565b8015611e095780601f10611de057610100808354040283529160200191611e09565b820191905f5260205f20905b815481529060010190602001808311611dec57829003601f168201915b50505050508152602001600282015f9054906101000a900460ff166003811115611e3657611e35613922565b5b6003811115611e4857611e47613922565b5b81526020016002820160019054906101000a900460ff166002811115611e7157611e70613922565b5b6002811115611e8357611e82613922565b5b815260200160038201548152602001600482015481526020016005820154815250509050909192565b600a5481565b600d602052805f5260405f205f91509050805f018054611ed190614444565b80601f0160208091040260200160405190810160405280929190818152602001828054611efd90614444565b8015611f485780601f10611f1f57610100808354040283529160200191611f48565b820191905f5260205f20905b815481529060010190602001808311611f2b57829003601f168201915b505050505090806001018054611f5d90614444565b80601f0160208091040260200160405190810160405280929190818152602001828054611f8990614444565b8015611fd45780601f10611fab57610100808354040283529160200191611fd4565b820191905f5260205f20905b815481529060010190602001808311611fb757829003601f168201915b505050505090806002015f9054906101000a900460ff16908060020160019054906101000a900460ff16908060030154908060040154908060050154905087565b61201d612c30565b612710811115612059576040517ffd8e5cdf00000000000000000000000000000000000000000000000000000000815260040160405180910390fd5b5f600c54905081600c819055507ff56f6dde6ba5bd1383a94fe68dc507dd52d3bc1f5b0b400ddca66c8645dd1942818360405161209792919061459c565b60405180910390a15050565b5f612710600c54866120b591906145c3565b6120bf9190614631565b90505f62278d00612710866120d491906145c3565b6120de9190614631565b905061271081836120ef91906145c3565b6120f99190614631565b915066038d7ea4c680008210156121155766038d7ea4c6800091505b50949350505050565b6007602052815f5260405f208181548110612137575f80fd5b905f5260205f2090600402015f9150915050805f0154908060010154908060020154908060030154905084565b6004602052805f5260405f205f91509050805f015f9054906101000a900473ffffffffffffffffffffffffffffffffffffffff16908060010154908060020154908060030180546121b490614444565b80601f01602080910402602001604051908101604052809291908181526020018280546121e090614444565b801561222b5780601f106122025761010080835404028352916020019161222b565b820191905f5260205f20905b81548152906001019060200180831161220e57829003601f168201915b505050505090806004015f9054906101000a900460ff1690806005015490806006015f9054906101000a900460ff1690806007015490806008015490806009015f9054906101000a900460ff169080600a015490508b565b60035481565b612291612c30565b5f73ffffffffffffffffffffffffffffffffffffffff168173ffffffffffffffffffffffffffffffffffffffff16036122f6576040517f62f3dbc200000000000000000000000000000000000000000000000000000000815260040160405180910390fd5b8060025f6101000a81548173ffffffffffffffffffffffffffffffffffffffff021916908373ffffffffffffffffffffffffffffffffffffffff16021790555050565b5f5f90505b82829050811015612451575f83838381811061235d5761235c614376565b5b9050602002013590505f60045f8381526020019081526020015f2090505f600381111561238d5761238c613922565b5b816009015f9054906101000a900460ff1660038111156123b0576123af613922565b5b1480156123c05750806002015442115b15612442575f816009015f9054906101000a900460ff1690506002826009015f6101000a81548160ff02191690836003811115612400576123ff613922565b5b0217905550827fa2df5e49d535763a303e346ea5157ce1f174dd7048a0c939830010b08e4b0601826002604051612438929190614661565b60405180910390a2505b5050808060010191505061233e565b5061245a612ff9565b5050565b5f5f600281111561247257612471613922565b5b84600281111561248557612484613922565b5b03612494578183139050612503565b600160028111156124a8576124a7613922565b5b8460028111156124bb576124ba613922565b5b036124ca578183129050612503565b6002808111156124dd576124dc613922565b5b8460028111156124f0576124ef613922565b5b036124ff578183149050612503565b5f90505b9392505050565b612512612c30565b5f73ffffffffffffffffffffffffffffffffffffffff168173ffffffffffffffffffffffffffffffffffffffff1603612582575f6040517f1e4fbdf70000000000000000000000000000000000000000000000000000000081526004016125799190613d6a565b60405180910390fd5b61258b8161312e565b50565b600b5481565b61259c611315565b156125d3576040517fd93c066500000000000000000000000000000000000000000000000000000000815260040160405180910390fd5b565b6125dd613251565b60026125ef6125ea613292565b6132bb565b5f0181905550565b5f42881015612632576040517f4e40f4b400000000000000000000000000000000000000000000000000000000815260040160405180910390fd5b87871161266b576040517f4e40f4b400000000000000000000000000000000000000000000000000000000815260040160405180910390fd5b5f88886126789190614688565b905060085481108061268b575060095481115b156126c2576040517f4e40f4b400000000000000000000000000000000000000000000000000000000815260040160405180910390fd5b600a548310806126d35750600b5483115b1561270a576040517fe5baf2c100000000000000000000000000000000000000000000000000000000815260040160405180910390fd5b5f612717848389886120a3565b905080341015612753576040517f30cc5d5d00000000000000000000000000000000000000000000000000000000815260040160405180910390fd5b60035f815480929190612765906143d0565b9190505592506040518061016001604052803373ffffffffffffffffffffffffffffffffffffffff1681526020018b81526020018a81526020018981526020018860038111156127b8576127b7613922565b5b81526020018781526020018660028111156127d6576127d5613922565b5b81526020018281526020018581526020015f60038111156127fa576127f9613922565b5b81526020014281525060045f8581526020019081526020015f205f820151815f015f6101000a81548173ffffffffffffffffffffffffffffffffffffffff021916908373ffffffffffffffffffffffffffffffffffffffff160217905550602082015181600101556040820151816002015560608201518160030190816128819190614852565b506080820151816004015f6101000a81548160ff021916908360038111156128ac576128ab613922565b5b021790555060a0820151816005015560c0820151816006015f6101000a81548160ff021916908360028111156128e5576128e4613922565b5b021790555060e082015181600701556101008201518160080155610120820151816009015f6101000a81548160ff0219169083600381111561292a57612929613922565b5b021790555061014082015181600a015590505060055f3373ffffffffffffffffffffffffffffffffffffffff1673ffffffffffffffffffffffffffffffffffffffff1681526020019081526020015f2083908060018154018082558091505060019003905f5260205f20015f90919091909150555f60015f9054906101000a900473ffffffffffffffffffffffffffffffffffffffff1673ffffffffffffffffffffffffffffffffffffffff16826040516129e490614944565b5f6040518083038185875af1925050503d805f8114612a1e576040519150601f19603f3d011682016040523d82523d5f602084013e612a23565b606091505b5050905080612a67576040517f08c379a0000000000000000000000000000000000000000000000000000000008152600401612a5e906149a2565b60405180910390fd5b60015f9054906101000a900473ffffffffffffffffffffffffffffffffffffffff1673ffffffffffffffffffffffffffffffffffffffff16632134f020836040518263ffffffff1660e01b8152600401612ac19190613437565b5f604051808303815f87803b158015612ad8575f5ffd5b505af1158015612aea573d5f5f3e3d5ffd5b50505050612af6612ff9565b81341115612bb3575f3373ffffffffffffffffffffffffffffffffffffffff168334612b229190614688565b604051612b2e90614944565b5f6040518083038185875af1925050503d805f8114612b68576040519150601f19603f3d011682016040523d82523d5f602084013e612b6d565b606091505b5050905080612bb1576040517f08c379a0000000000000000000000000000000000000000000000000000000008152600401612ba890614a0a565b60405180910390fd5b505b3373ffffffffffffffffffffffffffffffffffffffff16847fb210247555e16f6472705a79f5a52e8af7002c8907950844557a0a9dbee00a9384888f8f604051612c009493929190614559565b60405180910390a3505050979650505050505050565b6001612c28612c23613292565b6132bb565b5f0181905550565b612c386132c4565b73ffffffffffffffffffffffffffffffffffffffff16612c5661188b565b73ffffffffffffffffffffffffffffffffffffffff1614612cb557612c796132c4565b6040517f118cdaa7000000000000000000000000000000000000000000000000000000008152600401612cac9190613d6a565b60405180910390fd5b565b612cbf6132cb565b5f5f60146101000a81548160ff0219169083151502179055507f5db9ee0a495bf2e6ff9c91a7834c1ba4fdd244a5e8aa4e537bd38aeae4b073aa612d016132c4565b604051612d0e9190613d6a565b60405180910390a1565b5f60045f8581526020019081526020015f20905060065f8581526020019081526020015f205f9054906101000a900460ff1615612d555750612ff4565b600160065f8681526020019081526020015f205f6101000a81548160ff0219169083151502179055505f816009015f9054906101000a900460ff1690506001826009015f6101000a81548160ff02191690836003811115612db957612db8613922565b5b021790555060075f835f015f9054906101000a900473ffffffffffffffffffffffffffffffffffffffff1673ffffffffffffffffffffffffffffffffffffffff1673ffffffffffffffffffffffffffffffffffffffff1681526020019081526020015f2060405180608001604052808781526020018581526020018460080154815260200186815250908060018154018082558091505060019003905f5260205f2090600402015f909190919091505f820151815f0155602082015181600101556040820151816002015560608201518160030155505060015f9054906101000a900473ffffffffffffffffffffffffffffffffffffffff1673ffffffffffffffffffffffffffffffffffffffff1663fcd899d3835f015f9054906101000a900473ffffffffffffffffffffffffffffffffffffffff1684600801546040518363ffffffff1660e01b8152600401612f12929190614a28565b5f604051808303815f87803b158015612f29575f5ffd5b505af1158015612f3b573d5f5f3e3d5ffd5b50505050847fa2df5e49d535763a303e346ea5157ce1f174dd7048a0c939830010b08e4b0601826001604051612f72929190614661565b60405180910390a2815f015f9054906101000a900473ffffffffffffffffffffffffffffffffffffffff1673ffffffffffffffffffffffffffffffffffffffff16857fe7341d3ada07d539ddfc0995d3c26c60000920fe12039ac4373255a9da15b72e846008015486604051612fe992919061459c565b60405180910390a350505b505050565b5f5f90505f5f90505b6003548110156130a3575f600381111561301f5761301e613922565b5b60045f8381526020019081526020015f206009015f9054906101000a900460ff16600381111561305257613051613922565b5b036130965760045f8281526020019081526020015f206002015442116130955760045f8281526020019081526020015f2060080154826130929190614474565b91505b5b8080600101915050613002565b5060015f9054906101000a900473ffffffffffffffffffffffffffffffffffffffff1673ffffffffffffffffffffffffffffffffffffffff16638a7e5986826040518263ffffffff1660e01b81526004016130fe9190613437565b5f604051808303815f87803b158015613115575f5ffd5b505af1158015613127573d5f5f3e3d5ffd5b5050505050565b5f5f5f9054906101000a900473ffffffffffffffffffffffffffffffffffffffff169050815f5f6101000a81548173ffffffffffffffffffffffffffffffffffffffff021916908373ffffffffffffffffffffffffffffffffffffffff1602179055508173ffffffffffffffffffffffffffffffffffffffff168173ffffffffffffffffffffffffffffffffffffffff167f8be0079c531659141344cd1fd0a4f28419497f9722a3daafe3b4186f6b6457e060405160405180910390a35050565b6131f7612594565b60015f60146101000a81548160ff0219169083151502179055507f62e78cea01bee320cd4e420270b5ea74000d11b0c9f74754ebdbfc544b05a25861323a6132c4565b6040516132479190613d6a565b60405180910390a1565b61325961330b565b15613290576040517f3ee5aeb500000000000000000000000000000000000000000000000000000000815260040160405180910390fd5b565b5f7f9b779b17422d0df92223018b32b4d1fa46e071723d6817e2486d003becc55f005f1b905090565b5f819050919050565b5f33905090565b6132d3611315565b613309576040517f8dfc202b00000000000000000000000000000000000000000000000000000000815260040160405180910390fd5b565b5f600261331e613319613292565b6132bb565b5f015414905090565b6040518061016001604052805f73ffffffffffffffffffffffffffffffffffffffff1681526020015f81526020015f8152602001606081526020015f600381111561337557613374613922565b5b81526020015f81526020015f600281111561339357613392613922565b5b81526020015f81526020015f81526020015f60038111156133b7576133b6613922565b5b81526020015f81525090565b6040518060e0016040528060608152602001606081526020015f60038111156133ef576133ee613922565b5b81526020015f600281111561340757613406613922565b5b81526020015f81526020015f81526020015f81525090565b5f819050919050565b6134318161341f565b82525050565b5f60208201905061344a5f830184613428565b92915050565b5f604051905090565b5f5ffd5b5f5ffd5b61346a8161341f565b8114613474575f5ffd5b50565b5f8135905061348581613461565b92915050565b5f602082840312156134a05761349f613459565b5b5f6134ad84828501613477565b91505092915050565b5f8115159050919050565b6134ca816134b6565b82525050565b5f6020820190506134e35f8301846134c1565b92915050565b5f73ffffffffffffffffffffffffffffffffffffffff82169050919050565b5f613512826134e9565b9050919050565b61352281613508565b811461352c575f5ffd5b50565b5f8135905061353d81613519565b92915050565b5f6020828403121561355857613557613459565b5b5f6135658482850161352f565b91505092915050565b5f81519050919050565b5f82825260208201905092915050565b5f819050602082019050919050565b6135a08161341f565b82525050565b5f6135b18383613597565b60208301905092915050565b5f602082019050919050565b5f6135d38261356e565b6135dd8185613578565b93506135e883613588565b805f5b838110156136185781516135ff88826135a6565b975061360a836135bd565b9250506001810190506135eb565b5085935050505092915050565b5f6020820190508181035f83015261363d81846135c9565b905092915050565b5f5ffd5b5f5ffd5b5f601f19601f8301169050919050565b7f4e487b71000000000000000000000000000000000000000000000000000000005f52604160045260245ffd5b6136938261364d565b810181811067ffffffffffffffff821117156136b2576136b161365d565b5b80604052505050565b5f6136c4613450565b90506136d0828261368a565b919050565b5f67ffffffffffffffff8211156136ef576136ee61365d565b5b6136f88261364d565b9050602081019050919050565b828183375f83830152505050565b5f613725613720846136d5565b6136bb565b90508281526020810184848401111561374157613740613649565b5b61374c848285613705565b509392505050565b5f82601f83011261376857613767613645565b5b8135613778848260208601613713565b91505092915050565b6004811061378d575f5ffd5b50565b5f8135905061379e81613781565b92915050565b5f819050919050565b6137b6816137a4565b81146137c0575f5ffd5b50565b5f813590506137d1816137ad565b92915050565b600381106137e3575f5ffd5b50565b5f813590506137f4816137d7565b92915050565b5f5f5f5f5f5f5f60e0888a03121561381557613814613459565b5b5f6138228a828b01613477565b97505060206138338a828b01613477565b965050604088013567ffffffffffffffff8111156138545761385361345d565b5b6138608a828b01613754565b95505060606138718a828b01613790565b94505060806138828a828b016137c3565b93505060a06138938a828b016137e6565b92505060c06138a48a828b01613477565b91505092959891949750929550565b6138bc81613508565b82525050565b5f81519050919050565b5f82825260208201905092915050565b8281835e5f83830152505050565b5f6138f4826138c2565b6138fe81856138cc565b935061390e8185602086016138dc565b6139178161364d565b840191505092915050565b7f4e487b71000000000000000000000000000000000000000000000000000000005f52602160045260245ffd5b600481106139605761395f613922565b5b50565b5f8190506139708261394f565b919050565b5f61397f82613963565b9050919050565b61398f81613975565b82525050565b61399e816137a4565b82525050565b600381106139b5576139b4613922565b5b50565b5f8190506139c5826139a4565b919050565b5f6139d4826139b8565b9050919050565b6139e4816139ca565b82525050565b600481106139fb576139fa613922565b5b50565b5f819050613a0b826139ea565b919050565b5f613a1a826139fe565b9050919050565b613a2a81613a10565b82525050565b5f61016083015f830151613a465f8601826138b3565b506020830151613a596020860182613597565b506040830151613a6c6040860182613597565b5060608301518482036060860152613a8482826138ea565b9150506080830151613a996080860182613986565b5060a0830151613aac60a0860182613995565b5060c0830151613abf60c08601826139db565b5060e0830151613ad260e0860182613597565b50610100830151613ae7610100860182613597565b50610120830151613afc610120860182613a21565b50610140830151613b11610140860182613597565b508091505092915050565b5f6020820190508181035f830152613b348184613a30565b905092915050565b60038110613b48575f5ffd5b50565b5f81359050613b5981613b3c565b92915050565b5f5f5f60608486031215613b7657613b75613459565b5b5f613b8386828701613b4b565b935050602084013567ffffffffffffffff811115613ba457613ba361345d565b5b613bb086828701613754565b9250506040613bc186828701613477565b9150509250925092565b613bd481613a10565b82525050565b5f602082019050613bed5f830184613bcb565b92915050565b5f5f60408385031215613c0957613c08613459565b5b5f613c168582860161352f565b9250506020613c2785828601613477565b9150509250929050565b5f60ff82169050919050565b613c4681613c31565b8114613c50575f5ffd5b50565b5f81359050613c6181613c3d565b92915050565b5f5f5f5f60808587031215613c7f57613c7e613459565b5b5f85013567ffffffffffffffff811115613c9c57613c9b61345d565b5b613ca887828801613754565b9450506020613cb987828801613c53565b9350506040613cca878288016137c3565b9250506060613cdb87828801613477565b91505092959194509250565b5f819050919050565b5f613d0a613d05613d00846134e9565b613ce7565b6134e9565b9050919050565b5f613d1b82613cf0565b9050919050565b5f613d2c82613d11565b9050919050565b613d3c81613d22565b82525050565b5f602082019050613d555f830184613d33565b92915050565b613d6481613508565b82525050565b5f602082019050613d7d5f830184613d5b565b92915050565b5f81519050919050565b5f82825260208201905092915050565b5f819050602082019050919050565b608082015f820151613dc05f850182613597565b506020820151613dd36020850182613597565b506040820151613de66040850182613597565b506060820151613df96060850182613995565b50505050565b5f613e0a8383613dac565b60808301905092915050565b5f602082019050919050565b5f613e2c82613d83565b613e368185613d8d565b9350613e4183613d9d565b805f5b83811015613e71578151613e588882613dff565b9750613e6383613e16565b925050600181019050613e44565b5085935050505092915050565b5f6020820190508181035f830152613e968184613e22565b905092915050565b5f5f5f5f60808587031215613eb657613eb5613459565b5b5f613ec387828801613477565b9450506020613ed487828801613477565b9350506040613ee587828801613477565b9250506060613ef687828801613477565b91505092959194509250565b5f60208284031215613f1757613f16613459565b5b5f613f2484828501613b4b565b91505092915050565b5f60e083015f8301518482035f860152613f4782826138ea565b91505060208301518482036020860152613f6182826138ea565b9150506040830151613f766040860182613986565b506060830151613f8960608601826139db565b506080830151613f9c6080860182613995565b5060a0830151613faf60a0860182613597565b5060c0830151613fc260c0860182613597565b508091505092915050565b5f6020820190508181035f830152613fe58184613f2d565b905092915050565b5f6060820190508181035f8301526140058186613f2d565b905081810360208301526140198185613f2d565b9050818103604083015261402d8184613f2d565b9050949350505050565b5f82825260208201905092915050565b5f614051826138c2565b61405b8185614037565b935061406b8185602086016138dc565b6140748161364d565b840191505092915050565b61408881613975565b82525050565b614097816139ca565b82525050565b6140a6816137a4565b82525050565b5f60e0820190508181035f8301526140c4818a614047565b905081810360208301526140d88189614047565b90506140e7604083018861407f565b6140f4606083018761408e565b614101608083018661409d565b61410e60a0830185613428565b61411b60c0830184613428565b98975050505050505050565b5f5f5f5f6080858703121561413f5761413e613459565b5b5f61414c87828801613477565b945050602061415d87828801613477565b935050604061416e87828801613790565b925050606061417f878288016137e6565b91505092959194509250565b5f60808201905061419e5f830187613428565b6141ab6020830186613428565b6141b86040830185613428565b6141c5606083018461409d565b95945050505050565b5f610160820190506141e25f83018e613d5b565b6141ef602083018d613428565b6141fc604083018c613428565b818103606083015261420e818b614047565b905061421d608083018a61407f565b61422a60a083018961409d565b61423760c083018861408e565b61424460e0830187613428565b614252610100830186613428565b614260610120830185613bcb565b61426e610140830184613428565b9c9b505050505050505050505050565b5f5ffd5b5f5ffd5b5f5f83601f84011261429b5761429a613645565b5b8235905067ffffffffffffffff8111156142b8576142b761427e565b5b6020830191508360208202830111156142d4576142d3614282565b5b9250929050565b5f5f602083850312156142f1576142f0613459565b5b5f83013567ffffffffffffffff81111561430e5761430d61345d565b5b61431a85828601614286565b92509250509250929050565b5f5f5f6060848603121561433d5761433c613459565b5b5f61434a868287016137e6565b935050602061435b868287016137c3565b925050604061436c868287016137c3565b9150509250925092565b7f4e487b71000000000000000000000000000000000000000000000000000000005f52603260045260245ffd5b7f4e487b71000000000000000000000000000000000000000000000000000000005f52601160045260245ffd5b5f6143da8261341f565b91507fffffffffffffffffffffffffffffffffffffffffffffffffffffffffffffffff820361440c5761440b6143a3565b5b600182019050919050565b7f4e487b71000000000000000000000000000000000000000000000000000000005f52602260045260245ffd5b5f600282049050600182168061445b57607f821691505b60208210810361446e5761446d614417565b5b50919050565b5f61447e8261341f565b91506144898361341f565b92508282019050808211156144a1576144a06143a3565b5b92915050565b5f81905092915050565b5f819050815f5260205f209050919050565b5f81546144cf81614444565b6144d981866144a7565b9450600182165f81146144f357600181146145085761453a565b60ff198316865281151582028601935061453a565b614511856144b1565b5f5b8381101561453257815481890152600182019150602081019050614513565b838801955050505b50505092915050565b5f61454e82846144c3565b915081905092915050565b5f60808201905061456c5f830187613428565b6145796020830186613428565b6145866040830185613428565b6145936060830184613428565b95945050505050565b5f6040820190506145af5f830185613428565b6145bc6020830184613428565b9392505050565b5f6145cd8261341f565b91506145d88361341f565b92508282026145e68161341f565b915082820484148315176145fd576145fc6143a3565b5b5092915050565b7f4e487b71000000000000000000000000000000000000000000000000000000005f52601260045260245ffd5b5f61463b8261341f565b91506146468361341f565b92508261465657614655614604565b5b828204905092915050565b5f6040820190506146745f830185613bcb565b6146816020830184613bcb565b9392505050565b5f6146928261341f565b915061469d8361341f565b92508282039050818111156146b5576146b46143a3565b5b92915050565b5f819050815f5260205f209050919050565b5f6020601f8301049050919050565b5f82821b905092915050565b5f600883026147177fffffffffffffffffffffffffffffffffffffffffffffffffffffffffffffffff826146dc565b61472186836146dc565b95508019841693508086168417925050509392505050565b5f61475361474e6147498461341f565b613ce7565b61341f565b9050919050565b5f819050919050565b61476c83614739565b6147806147788261475a565b8484546146e8565b825550505050565b5f5f905090565b614797614788565b6147a2818484614763565b505050565b5b818110156147c5576147ba5f8261478f565b6001810190506147a8565b5050565b601f82111561480a576147db816146bb565b6147e4846146cd565b810160208510156147f3578190505b6148076147ff856146cd565b8301826147a7565b50505b505050565b5f82821c905092915050565b5f61482a5f198460080261480f565b1980831691505092915050565b5f614842838361481b565b9150826002028217905092915050565b61485b826138c2565b67ffffffffffffffff8111156148745761487361365d565b5b61487e8254614444565b6148898282856147c9565b5f60209050601f8311600181146148ba575f84156148a8578287015190505b6148b28582614837565b865550614919565b601f1984166148c8866146bb565b5f5b828110156148ef578489015182556001820191506020850194506020810190506148ca565b8683101561490c5784890151614908601f89168261481b565b8355505b6001600288020188555050505b505050505050565b50565b5f61492f5f836144a7565b915061493a82614921565b5f82019050919050565b5f61494e82614924565b9150819050919050565b7f5072656d69756d207472616e73666572206661696c65640000000000000000005f82015250565b5f61498c601783614037565b915061499782614958565b602082019050919050565b5f6020820190508181035f8301526149b981614980565b9050919050565b7f526566756e64206661696c6564000000000000000000000000000000000000005f82015250565b5f6149f4600d83614037565b91506149ff826149c0565b602082019050919050565b5f6020820190508181035f830152614a21816149e8565b9050919050565b5f604082019050614a3b5f830185613d5b565b614a486020830184613428565b939250505056fea2646970667358221220c52d5a5bb72c0ce84b5aad734ee0978fe8607e8069b16a20e9553e613b6e293f64736f6c634300081e003350726f74656374696f6e20616761696e73742061647665727365207765617468657220636f6e646974696f6e7320616666656374696e672063726f7073436f76657261676520666f72206f7574646f6f72206576656e747320616761696e7374207261696e206f722065787472656d65207765617468657250726f74656374696f6e20666f722074726176656c20706c616e7320616761696e73742065787472656d65207765617468657220636f6e646974696f6e73","linkReferences":{}},"methodIdentifiers":{"basePremiumRate()":"77c17b98","calculatePremium(uint256,uint256,uint8,uint8)":"c2fbaa61","claimedPolicies(uint256)":"02de32cf","createPolicy(uint256,uint256,string,uint8,int256,uint8,uint256)":"1f953a6c","createPolicyFromTemplate(uint8,string,uint256)":"36eb6b58","evaluatePolicies(string,uint8,int256,uint256)":"660e9efd","evaluateTrigger(uint8,int256,int256)":"eea5e06b","getAllTemplates()":"8e46a300","getPolicy(uint256)":"2b07fce3","getPolicyStatus(uint256)":"3b03249c","getTemplate(uint8)":"81a8f0c3","getUserActivePolicies(address)":"12052b2b","getUserClaims(address)":"7bcb4a64","getUserPolicies(address)":"19ac4614","liquidityPool()":"665a11ca","maxCoveragePeriod()":"010a4313","maxPayoutAmount()":"f8d96c98","minCoveragePeriod()":"5e9fdfd2","minPayoutAmount()":"a4169fa9","oracleConsumer()":"6c84dd81","owner()":"8da5cb5b","pause()":"8456cb59","paused()":"5c975abb","policies(uint256)":"d3e89483","policyCounter()":"d52c1bea","renounceOwnership()":"715018a6","setBasePremiumRate(uint256)":"b7bf57dd","setOracleConsumer(address)":"eb02aefb","setParameterLimits(uint256,uint256,uint256,uint256)":"816a3033","templates(uint8)":"b4b7f20d","transferOwnership(address)":"f2fde38b","unpause()":"3f4ba83a","updateExpiredPolicies(uint256[])":"ee545efb","userClaims(address,uint256)":"ca9748ea","userPolicies(address,uint256)":"3d36adc5"},"id":40}